{
  "contractName": "Adoption",
  "abi": [
    {
      "inputs": [],
      "payable": false,
      "stateMutability": "nonpayable",
      "type": "constructor"
    },
    {
      "anonymous": false,
      "inputs": [
        {
          "indexed": true,
          "internalType": "address",
          "name": "from",
          "type": "address"
        },
        {
          "indexed": false,
          "internalType": "uint256",
          "name": "amount",
          "type": "uint256"
        }
      ],
      "name": "Deposit",
      "type": "event"
    },
    {
      "constant": true,
      "inputs": [
        {
          "internalType": "uint256",
          "name": "",
          "type": "uint256"
        }
      ],
      "name": "adoptedTime",
      "outputs": [
        {
          "internalType": "uint256",
          "name": "",
          "type": "uint256"
        }
      ],
      "payable": false,
      "stateMutability": "view",
      "type": "function"
    },
    {
      "constant": true,
      "inputs": [
        {
          "internalType": "uint256",
          "name": "",
          "type": "uint256"
        }
      ],
      "name": "adopters",
      "outputs": [
        {
          "internalType": "address",
          "name": "",
          "type": "address"
        }
      ],
      "payable": false,
      "stateMutability": "view",
      "type": "function"
    },
    {
      "constant": true,
      "inputs": [],
      "name": "myAddr",
      "outputs": [
        {
          "internalType": "string",
          "name": "",
          "type": "string"
        }
      ],
      "payable": false,
      "stateMutability": "view",
      "type": "function"
    },
    {
      "constant": true,
      "inputs": [
        {
          "internalType": "uint256",
          "name": "",
          "type": "uint256"
        }
      ],
      "name": "pets",
      "outputs": [
        {
          "internalType": "uint256",
          "name": "id",
          "type": "uint256"
        },
        {
          "internalType": "string",
          "name": "name",
          "type": "string"
        },
        {
          "internalType": "string",
          "name": "picture",
          "type": "string"
        },
        {
          "internalType": "uint256",
          "name": "age",
          "type": "uint256"
        },
        {
          "internalType": "string",
          "name": "breed",
          "type": "string"
        },
        {
          "internalType": "string",
          "name": "location",
          "type": "string"
        },
        {
          "internalType": "address payable",
          "name": "adopter",
          "type": "address"
        },
        {
          "internalType": "uint256",
          "name": "date",
          "type": "uint256"
        },
        {
          "internalType": "bool",
          "name": "isAdopted",
          "type": "bool"
        }
      ],
      "payable": false,
      "stateMutability": "view",
      "type": "function"
    },
    {
      "constant": true,
      "inputs": [],
      "name": "petsNum",
      "outputs": [
        {
          "internalType": "uint256",
          "name": "",
          "type": "uint256"
        }
      ],
      "payable": false,
      "stateMutability": "view",
      "type": "function"
    },
    {
      "constant": false,
      "inputs": [],
      "name": "donate",
      "outputs": [],
      "payable": true,
      "stateMutability": "payable",
      "type": "function"
    },
    {
      "constant": false,
      "inputs": [
        {
          "internalType": "uint256",
          "name": "petId",
          "type": "uint256"
        }
      ],
      "name": "adopt",
      "outputs": [
        {
          "internalType": "uint256",
          "name": "",
          "type": "uint256"
        }
      ],
      "payable": false,
      "stateMutability": "nonpayable",
      "type": "function"
    },
    {
      "constant": false,
      "inputs": [
        {
          "internalType": "string",
          "name": "name",
          "type": "string"
        },
        {
          "internalType": "string",
          "name": "picture",
          "type": "string"
        },
        {
          "internalType": "uint256",
          "name": "age",
          "type": "uint256"
        },
        {
          "internalType": "string",
          "name": "breed",
          "type": "string"
        },
        {
          "internalType": "string",
          "name": "location",
          "type": "string"
        }
      ],
      "name": "add",
      "outputs": [
        {
          "internalType": "uint256",
          "name": "",
          "type": "uint256"
        }
      ],
      "payable": false,
      "stateMutability": "nonpayable",
      "type": "function"
    },
    {
      "constant": true,
      "inputs": [],
      "name": "getPetsNum",
      "outputs": [
        {
          "internalType": "uint256",
          "name": "",
          "type": "uint256"
        }
      ],
      "payable": false,
      "stateMutability": "view",
      "type": "function"
    },
    {
      "constant": true,
      "inputs": [
        {
          "internalType": "uint256",
          "name": "petId",
          "type": "uint256"
        }
      ],
      "name": "getPetDetails",
      "outputs": [
        {
          "internalType": "uint256",
          "name": "",
          "type": "uint256"
        },
        {
          "internalType": "string",
          "name": "",
          "type": "string"
        },
        {
          "internalType": "string",
          "name": "",
          "type": "string"
        },
        {
          "internalType": "uint256",
          "name": "",
          "type": "uint256"
        },
        {
          "internalType": "string",
          "name": "",
          "type": "string"
        },
        {
          "internalType": "string",
          "name": "",
          "type": "string"
        },
        {
          "internalType": "address payable",
          "name": "",
          "type": "address"
        },
        {
          "internalType": "uint256",
          "name": "",
          "type": "uint256"
        },
        {
          "internalType": "bool",
          "name": "",
          "type": "bool"
        }
      ],
      "payable": false,
      "stateMutability": "view",
      "type": "function"
    },
    {
      "constant": true,
      "inputs": [
        {
          "internalType": "uint256",
          "name": "petId",
          "type": "uint256"
        }
      ],
      "name": "isAdopted",
      "outputs": [
        {
          "internalType": "uint256",
          "name": "",
          "type": "uint256"
        },
        {
          "internalType": "bool",
          "name": "",
          "type": "bool"
        }
      ],
      "payable": false,
      "stateMutability": "view",
      "type": "function"
    },
    {
      "constant": true,
      "inputs": [],
      "name": "getAdopters",
      "outputs": [
        {
          "internalType": "address[16]",
          "name": "",
          "type": "address[16]"
        }
      ],
      "payable": false,
      "stateMutability": "view",
      "type": "function"
    }
  ],
  "bytecode": "0x60806040526040518060600160405280602a815260200162001b3a602a9139601390805190602001906200003592919062000052565b503480156200004357600080fd5b50600060128190555062000101565b828054600181600116156101000203166002900490600052602060002090601f016020900481019282601f106200009557805160ff1916838001178555620000c6565b82800160010185558215620000c6579182015b82811115620000c5578251825591602001919060010190620000a8565b5b509050620000d59190620000d9565b5090565b620000fe91905b80821115620000fa576000816000905550600101620000e0565b5090565b90565b611a2980620001116000396000f3fe6080604052600436106100a75760003560e01c80638588b2c5116100645780638588b2c5146104d5578063ac3098d214610524578063cfb869bf14610573578063d89fd4b4146107be578063e665b26614610a09578063ed88c68e14610a99576100a7565b80633de4eb17146100ac5780633ec0725d146100ff57806343ae80d31461012a5780637541475f146101a55780637d8dcf0b146101ff5780638041952f146104aa575b600080fd5b3480156100b857600080fd5b506100c1610aa3565b6040518082601060200280838360005b838110156100ec5780820151818401526020810190506100d1565b5050505090500191505060405180910390f35b34801561010b57600080fd5b50610114610b24565b6040518082815260200191505060405180910390f35b34801561013657600080fd5b506101636004803603602081101561014d57600080fd5b8101908080359060200190929190505050610b2e565b604051808273ffffffffffffffffffffffffffffffffffffffff1673ffffffffffffffffffffffffffffffffffffffff16815260200191505060405180910390f35b3480156101b157600080fd5b506101de600480360360208110156101c857600080fd5b8101908080359060200190929190505050610b61565b60405180838152602001821515151581526020019250505060405180910390f35b34801561020b57600080fd5b50610494600480360360a081101561022257600080fd5b810190808035906020019064010000000081111561023f57600080fd5b82018360208201111561025157600080fd5b8035906020019184600183028401116401000000008311171561027357600080fd5b91908080601f016020809104026020016040519081016040528093929190818152602001838380828437600081840152601f19601f820116905080830192505050505050509192919290803590602001906401000000008111156102d657600080fd5b8201836020820111156102e857600080fd5b8035906020019184600183028401116401000000008311171561030a57600080fd5b91908080601f016020809104026020016040519081016040528093929190818152602001838380828437600081840152601f19601f820116905080830192505050505050509192919290803590602001909291908035906020019064010000000081111561037757600080fd5b82018360208201111561038957600080fd5b803590602001918460018302840111640100000000831117156103ab57600080fd5b91908080601f016020809104026020016040519081016040528093929190818152602001838380828437600081840152601f19601f8201169050808301925050505050505091929192908035906020019064010000000081111561040e57600080fd5b82018360208201111561042057600080fd5b8035906020019184600183028401116401000000008311171561044257600080fd5b91908080601f016020809104026020016040519081016040528093929190818152602001838380828437600081840152601f19601f820116905080830192505050505050509192919290505050610ed4565b6040518082815260200191505060405180910390f35b3480156104b657600080fd5b506104bf611063565b6040518082815260200191505060405180910390f35b3480156104e157600080fd5b5061050e600480360360208110156104f857600080fd5b8101908080359060200190929190505050611069565b6040518082815260200191505060405180910390f35b34801561053057600080fd5b5061055d6004803603602081101561054757600080fd5b8101908080359060200190929190505050611124565b6040518082815260200191505060405180910390f35b34801561057f57600080fd5b506105ac6004803603602081101561059657600080fd5b810190808035906020019092919050505061113c565b604051808a8152602001806020018060200189815260200180602001806020018873ffffffffffffffffffffffffffffffffffffffff1673ffffffffffffffffffffffffffffffffffffffff1681526020018781526020018615151515815260200185810385528d818151815260200191508051906020019080838360005b8381101561064657808201518184015260208101905061062b565b50505050905090810190601f1680156106735780820380516001836020036101000a031916815260200191505b5085810384528c818151815260200191508051906020019080838360005b838110156106ac578082015181840152602081019050610691565b50505050905090810190601f1680156106d95780820380516001836020036101000a031916815260200191505b5085810383528a818151815260200191508051906020019080838360005b838110156107125780820151818401526020810190506106f7565b50505050905090810190601f16801561073f5780820380516001836020036101000a031916815260200191505b50858103825289818151815260200191508051906020019080838360005b8381101561077857808201518184015260208101905061075d565b50505050905090810190601f1680156107a55780820380516001836020036101000a031916815260200191505b509d505050505050505050505050505060405180910390f35b3480156107ca57600080fd5b506107f7600480360360208110156107e157600080fd5b8101908080359060200190929190505050611417565b604051808a8152602001806020018060200189815260200180602001806020018873ffffffffffffffffffffffffffffffffffffffff1673ffffffffffffffffffffffffffffffffffffffff1681526020018781526020018615151515815260200185810385528d818151815260200191508051906020019080838360005b83811015610891578082015181840152602081019050610876565b50505050905090810190601f1680156108be5780820380516001836020036101000a031916815260200191505b5085810384528c818151815260200191508051906020019080838360005b838110156108f75780820151818401526020810190506108dc565b50505050905090810190601f1680156109245780820380516001836020036101000a031916815260200191505b5085810383528a818151815260200191508051906020019080838360005b8381101561095d578082015181840152602081019050610942565b50505050905090810190601f16801561098a5780820380516001836020036101000a031916815260200191505b50858103825289818151815260200191508051906020019080838360005b838110156109c35780820151818401526020810190506109a8565b50505050905090810190601f1680156109f05780820380516001836020036101000a031916815260200191505b509d505050505050505050505050505060405180910390f35b348015610a1557600080fd5b50610a1e6117da565b6040518080602001828103825283818151815260200191508051906020019080838360005b83811015610a5e578082015181840152602081019050610a43565b50505050905090810190601f168015610a8b5780820380516001836020036101000a031916815260200191505b509250505060405180910390f35b610aa1611878565b005b610aab6118c8565b6000601080602002604051908101604052809291908260108015610b1a576020028201915b8160009054906101000a900473ffffffffffffffffffffffffffffffffffffffff1673ffffffffffffffffffffffffffffffffffffffff1681526020019060010190808311610ad0575b5050505050905090565b6000601254905090565b60008160108110610b3b57fe5b016000915054906101000a900473ffffffffffffffffffffffffffffffffffffffff1681565b60008060008310158015610b76575060125483105b610b7f57600080fd5b610b876118eb565b601060008581526020019081526020016000206040518061012001604052908160008201548152602001600182018054600181600116156101000203166002900480601f016020809104026020016040519081016040528092919081815260200182805460018160011615610100020316600290048015610c495780601f10610c1e57610100808354040283529160200191610c49565b820191906000526020600020905b815481529060010190602001808311610c2c57829003601f168201915b50505050508152602001600282018054600181600116156101000203166002900480601f016020809104026020016040519081016040528092919081815260200182805460018160011615610100020316600290048015610ceb5780601f10610cc057610100808354040283529160200191610ceb565b820191906000526020600020905b815481529060010190602001808311610cce57829003601f168201915b5050505050815260200160038201548152602001600482018054600181600116156101000203166002900480601f016020809104026020016040519081016040528092919081815260200182805460018160011615610100020316600290048015610d975780601f10610d6c57610100808354040283529160200191610d97565b820191906000526020600020905b815481529060010190602001808311610d7a57829003601f168201915b50505050508152602001600582018054600181600116156101000203166002900480601f016020809104026020016040519081016040528092919081815260200182805460018160011615610100020316600290048015610e395780601f10610e0e57610100808354040283529160200191610e39565b820191906000526020600020905b815481529060010190602001808311610e1c57829003601f168201915b505050505081526020016006820160009054906101000a900473ffffffffffffffffffffffffffffffffffffffff1673ffffffffffffffffffffffffffffffffffffffff1673ffffffffffffffffffffffffffffffffffffffff168152602001600782015481526020016008820160009054906101000a900460ff161515151581525050905080600001518161010001519250925050915091565b600060405180610120016040528060125481526020018781526020018681526020018581526020018481526020018381526020013373ffffffffffffffffffffffffffffffffffffffff16815260200142815260200160001515815250601060006012548152602001908152602001600020600082015181600001556020820151816001019080519060200190610f6c92919061194f565b506040820151816002019080519060200190610f8992919061194f565b50606082015181600301556080820151816004019080519060200190610fb092919061194f565b5060a0820151816005019080519060200190610fcd92919061194f565b5060c08201518160060160006101000a81548173ffffffffffffffffffffffffffffffffffffffff021916908373ffffffffffffffffffffffffffffffffffffffff16021790555060e082015181600701556101008201518160080160006101000a81548160ff021916908315150217905550905050601260008154809291906001019190505550601254905095945050505050565b60125481565b600080821015801561107c575060125482105b61108557600080fd5b336000836010811061109357fe5b0160006101000a81548173ffffffffffffffffffffffffffffffffffffffff021916908373ffffffffffffffffffffffffffffffffffffffff16021790555042601060008481526020019081526020016000206007018190555060016010600084815260200190815260200160002060080160006101000a81548160ff021916908315150217905550819050919050565b60116020528060005260406000206000915090505481565b6010602052806000526040600020600091509050806000015490806001018054600181600116156101000203166002900480601f0160208091040260200160405190810160405280929190818152602001828054600181600116156101000203166002900480156111ee5780601f106111c3576101008083540402835291602001916111ee565b820191906000526020600020905b8154815290600101906020018083116111d157829003601f168201915b505050505090806002018054600181600116156101000203166002900480601f01602080910402602001604051908101604052809291908181526020018280546001816001161561010002031660029004801561128c5780601f106112615761010080835404028352916020019161128c565b820191906000526020600020905b81548152906001019060200180831161126f57829003601f168201915b505050505090806003015490806004018054600181600116156101000203166002900480601f0160208091040260200160405190810160405280929190818152602001828054600181600116156101000203166002900480156113305780601f1061130557610100808354040283529160200191611330565b820191906000526020600020905b81548152906001019060200180831161131357829003601f168201915b505050505090806005018054600181600116156101000203166002900480601f0160208091040260200160405190810160405280929190818152602001828054600181600116156101000203166002900480156113ce5780601f106113a3576101008083540402835291602001916113ce565b820191906000526020600020905b8154815290600101906020018083116113b157829003601f168201915b5050505050908060060160009054906101000a900473ffffffffffffffffffffffffffffffffffffffff16908060070154908060080160009054906101000a900460ff16905089565b600060608060006060806000806000808a1015801561143757506012548a105b61144057600080fd5b6114486118eb565b601060008c81526020019081526020016000206040518061012001604052908160008201548152602001600182018054600181600116156101000203166002900480601f01602080910402602001604051908101604052809291908181526020018280546001816001161561010002031660029004801561150a5780601f106114df5761010080835404028352916020019161150a565b820191906000526020600020905b8154815290600101906020018083116114ed57829003601f168201915b50505050508152602001600282018054600181600116156101000203166002900480601f0160208091040260200160405190810160405280929190818152602001828054600181600116156101000203166002900480156115ac5780601f10611581576101008083540402835291602001916115ac565b820191906000526020600020905b81548152906001019060200180831161158f57829003601f168201915b5050505050815260200160038201548152602001600482018054600181600116156101000203166002900480601f0160208091040260200160405190810160405280929190818152602001828054600181600116156101000203166002900480156116585780601f1061162d57610100808354040283529160200191611658565b820191906000526020600020905b81548152906001019060200180831161163b57829003601f168201915b50505050508152602001600582018054600181600116156101000203166002900480601f0160208091040260200160405190810160405280929190818152602001828054600181600116156101000203166002900480156116fa5780601f106116cf576101008083540402835291602001916116fa565b820191906000526020600020905b8154815290600101906020018083116116dd57829003601f168201915b505050505081526020016006820160009054906101000a900473ffffffffffffffffffffffffffffffffffffffff1673ffffffffffffffffffffffffffffffffffffffff1673ffffffffffffffffffffffffffffffffffffffff168152602001600782015481526020016008820160009054906101000a900460ff1615151515815250509050806000015181602001518260400151836060015184608001518560a001518660c001518760e00151886101000151879750869650849450839350995099509950995099509950995099509950509193959799909294969850565b60138054600181600116156101000203166002900480601f0160208091040260200160405190810160405280929190818152602001828054600181600116156101000203166002900480156118705780601f1061184557610100808354040283529160200191611870565b820191906000526020600020905b81548152906001019060200180831161185357829003601f168201915b505050505081565b3373ffffffffffffffffffffffffffffffffffffffff167fe1fffcc4923d04b559f4d29a8bfc6cda04eb5b0d3c460751c2402c5c5cc9109c346040518082815260200191505060405180910390a2565b604051806102000160405280601090602082028038833980820191505090505090565b604051806101200160405280600081526020016060815260200160608152602001600081526020016060815260200160608152602001600073ffffffffffffffffffffffffffffffffffffffff168152602001600081526020016000151581525090565b828054600181600116156101000203166002900490600052602060002090601f016020900481019282601f1061199057805160ff19168380011785556119be565b828001600101855582156119be579182015b828111156119bd5782518255916020019190600101906119a2565b5b5090506119cb91906119cf565b5090565b6119f191905b808211156119ed5760008160009055506001016119d5565b5090565b9056fea265627a7a7231582062d9ab2797dc6968eadac438222c84a9505a0348526dfb41bafdb822ad35625e64736f6c63430005110032307837363865313863444438306566376630423161426342643939453861326445323034444443443036",
  "source": "pragma solidity ^0.5.0;\r\n// contract Purchasing{\r\n//   function sendViaTransfer(address payable _to) public payable {\r\n//         // This function is no longer recommended for sending Ether.\r\n//         _to.transfer(msg.value);\r\n//     }\r\n// }\r\n\r\n\r\ncontract Adoption {\r\n    // struct of a pet's info, picture = url of picture\r\n    // function destroy_smart_contract(address payable _to) public {\r\n    //     require(msg.sender == owner, \"Owner Function Only\");\r\n    //     selfdestruct(_to);\r\n    // }\r\n   \r\n    struct Pet{\r\n        uint id; //0\r\n        string name; //1\r\n        string picture;  //2\r\n        uint age; //3\r\n        string breed; //4\r\n        string location; //5\r\n        address payable adopter; //6\r\n        // bool isForSale;\r\n        // uint price;\r\n        // bool sold;\r\n        uint date; //7\r\n        bool isAdopted; //8\r\n    }\r\n\r\n    // struct PetVote{\r\n    //   uint id;\r\n    //   uint voteCount;\r\n    // }\r\n\r\n    address[16] public adopters;\r\n    // mapping from petsNum to pets' info\r\n    mapping(uint => Pet) public pets;\r\n    // mapping(uint => PetVote) public petsVotes;\r\n\r\n    mapping(uint => uint256) public adoptedTime;\r\n\r\n    // petsNum are positive Integer, representing number of pets\r\n    uint public petsNum;\r\n    // myAddr is our wallet address of petshop owner\r\n    string public myAddr = \"0x768e18cDD80ef7f0B1aBcBd99E8a2dE204DDCD06\";\r\n    // address public owner;\r\n    constructor() public{\r\n        petsNum = 0;\r\n        // owner = msg.sender;\r\n    }\r\n\r\n    event Deposit(address indexed from, uint amount);\r\n\r\n    function donate() external payable{\r\n        // require(msg.value > 0, \"The amount of donation should be larger than 0\");\r\n        emit Deposit(msg.sender, msg.value);\r\n    }\r\n\r\n    // function receive() \r\n    // Adopting a pet\r\n    function adopt(uint petId) public returns (uint) {\r\n      require(petId >= 0 && petId < petsNum);\r\n\r\n      adopters[petId] = msg.sender;\r\n      pets[petId].date = now;\r\n      pets[petId].isAdopted = true;\r\n  \r\n\r\n      return petId;\r\n}\r\n\r\n    // Adding a pet\r\n    function add(string memory name, string memory picture, uint age, string memory breed,\r\n        string memory location) public returns (uint) {\r\n\r\n        \r\n        pets[petsNum] = Pet(petsNum, name, picture, age, breed, location, msg.sender, now, false);\r\n        \r\n        // petsVotes[petsNum] = PetVote(petsNum, 0);\r\n\r\n        petsNum++;\r\n        return petsNum;\r\n    }\r\n\r\n    // Retrieving the numbers of pets\r\n    function getPetsNum() public view returns (uint) {\r\n        return petsNum;\r\n    }\r\n\r\n    // Retrieving the pet's details\r\n    function getPetDetails(uint petId) public view returns (uint, string memory, string memory, uint, string memory,\r\n        string memory, address payable, uint, bool) {\r\n        require(petId >= 0 && petId < petsNum);\r\n        Pet memory p = pets[petId];\r\n        return (p.id, p.name, p.picture, p.age, p.breed, p.location, p.adopter, p.date, p.isAdopted);\r\n    }\r\n\r\n\r\n    function isAdopted(uint petId) public view returns (uint, bool){\r\n        require(petId >= 0 && petId < petsNum);\r\n        Pet memory p = pets[petId];\r\n        return (p.id, p.isAdopted);\r\n    }\r\n\r\n    // Retrieving the adopters\r\n    function getAdopters() public view returns (address[16] memory) {\r\n    return adopters;\r\n    }\r\n}",
  "sourcePath": "/Users/yangzhou/Documents/pet-shop-box-master-TUTORIAL/contracts/Adoption.sol",
  "compiler": {
    "name": "solc",
    "version": "0.5.17+commit.d19bba13.Emscripten.clang"
  },
  "schemaVersion": "3.0.22",
  "updatedAt": "2023-04-02T00:06:06.053Z",
  "networkType": "ethereum",
  "devdoc": {
    "methods": {}
  },
  "userdoc": {
    "methods": {}
  }
}